:020000040000FA
:0400000018EF04F001
:08000800056ED8CF06F0E0CF31
:1000100007F00001E9CF0DF0EACF08F0E1CF09F0D9
:10002000E2CF0AF0D9CF0BF0DACF0CF0F3CF14F017
:10003000F4CF15F0FACF16F000C00FF001C010F0A9
:1000400002C011F003C012F004C013F0F2AA2CEFAA
:1000500000F0F2B4A1EF00F0F2A632EF00F0F2B03F
:10006000CBEF00F09DAA38EF00F09EBAB3EF00F09E
:100070000FC000F010C001F011C002F012C003F078
:1000800013C004F00E8E0DC0E9FF08C0EAFF09C0DE
:10009000E1FF0AC0E2FF0BC0D9FF0CC0DAFF14C0B9
:1000A000F3FF15C0F4FF16C0FAFF055007C0E0FFCC
:1000B00006C0D8FF1000F2CF0EF0F29EF76AD00F04
:1000C000F66E000EF7220900F5500EBEF28E1200F9
:1000D000280C0106F2CF0EF0F29EF76AEE0FF66ED4
:1000E000000EF7220900F5500EBEF28E12004C757C
:1000F0006E65733A25312E306600F2CF0EF0F29E17
:10010000F76A140FF66E010EF7220900F5500EBEC5
:10011000F28E120053652068612063616D6269612F
:10012000646F206C6120686F726120706F7220654F
:100130006C2076616C6F72204465736561646F0D2D
:100140000000D76AD66A232A2350070802E13A80C2
:10015000236A872B8751030803E1876B010E886FA1
:10016000F29438EF00F09EAA11D0036A2050180FC5
:10017000E96E000E0320EA6E9EAAFED7AECFEFFF17
:10018000202A2050080801E1206AEDD7010E216ED7
:100190009E9A38EF00F081CF38F03850E00BE0083D
:1001A00002E1010E396E3850D00BD00802E1020E88
:1001B000396E3850B00BB00802E1030E396E38507A
:1001C000700B700802E1040E396E3850F00BF00825
:1001D00001E1396AF29038EF00F0080E016E00007C
:1001E0008B969496000091378B98D8B09488D8A0BD
:1001F0009498948682A6FED7012EF1D700008B96A4
:1002000094960000948800000000948682A6FED791
:10021000016A000082B801808B9694968B9894981E
:10022000000C080E8E6F00C08FF09488000094863A
:1002300082A6FED782B8D88082A8D8900136000066
:1002400094968B968E2FF1D7948800008B988F51BF
:10025000D8A494980000948682A6FED700008B96BE
:10026000949600008B989498000CEA6A9C0EE96EB4
:10027000EF500EE0010E016E006A002EFED7012E37
:10028000FBD74A0E006E002EFED700D0EF2EF2D71D
:10029000000CA339F00B006E0F0E83140010836E58
:1002A0000000838000D08390000CF00E956E838454
:1002B00000008380000083380F0BA36F8390000041
:1002C0008380000083380F0BA26F8390000E956E21
:1002D000A339006EF00E00160050A211016E73EFEC
:1002E00001F08392E2D701C0A2F001BEFBD7A0A12A
:1002F0008392A0B183820000839400008390A1398F
:10030000A26F0F0EA217A2C0A3F0C3DFA1510F0B63
:10031000A26FA36FBEDF000C000E956E83928394D4
:1003200083900F0E9C6FA1DF010E896F8951030826
:1003300008E3030EA36FADDF050E9C6F96DF892BDC
:10034000F5D7020EA36FA5DF896B895103080EE371
:10035000036A8951F2CF8AF0F29EADDE8ABFF28E37
:100360008B6FA06BA16FBDDF892BEFD70AEF05F074
:1003700090C091F0926B9151090805E20A0E915FCD
:10038000100E922703D09151922701D0F4D792C03A
:1003900001F0000C8F9F3F0E8D179488000094860B
:1003A00000008B98949800008B969496D00E916FD5
:1003B00014DF916B12DF8FC090F0DADF01C090F094
:1003C00001C091F00ADF8EC090F0D2DF01C090F042
:1003D00001C091F002DF8DC090F0CADF01C090F043
:1003E00001C091F0FADE8CC090F0C2DF01C090F045
:1003F00001C091F0F2DE89C090F0BADF01C090F048
:1004000001C091F0EADE8AC090F0B2DF01C090F046
:1004100001C091F0E2DE8BC090F0AADF01C090F045
:1004200001C091F0DADE800E916FD7DE9498000063
:10043000948682A6FED7000000D0000094880000B9
:10044000000C8FC090F0D8909033780E90179031B8
:10045000006E00323F0E001600509025916F8F51B4
:100460000F0B9125016E000C9D2D01D003D0400E85
:100470009E6F01D09E6B010E9C5D9E279E51800950
:100480009F6FA06BA16F2DDF000C8E0E006E8AC0D7
:1004900001F089C002F0036A015209E102C001F0D3
:1004A000026A080E005E015202E1006A08D0D8908C
:1004B00001BE04D0023601360006F9D7019E000CB9
:1004C0009B510C0A05E0060A0BE0020A0FE013D06C
:1004D000A06B010EA16F05DF020E9C6FC6DE11D06E
:1004E000010E9C6F020E9D6FBFDF0BD0A06B100E34
:1004F000A16FF7DE06D0010EA06F9BC0A1F0F1DE68
:1005000000D0000C9B51D8B471D0006E9F51D8B46C
:100510006DD0002604E3810E002668E204D07F0E31
:10052000005E64E363E09CC0A3F0A051A31B9C8F1A
:10053000A08F9E51A203F4CFA5F09D51A103F4CF4B
:1005400003F0F3CFA4F0A203F350A527F450A423A3
:10055000000E03229E51A103F350A527F450A423BB
:10056000000E026A032202229C51A203F350A42728
:10057000F4500322000E02229C51A103F3500326E3
:10058000F4500222000E016A01229E51A003F35092
:10059000A427F4500322000E022201229D51A00341
:1005A000F3500326F4500222000E01229C51A003B6
:1005B000F3500226F4500122002A01BE05D0A437D0
:1005C0000336023601360006000EA4AF0AD0032A15
:1005D00002220122015005E1025003E1035001E132
:1005E000002AA3BF018EA3AF019E04D0006A016A56
:1005F000026A036A6DEF03F09B51B6089B6F036AB2
:100600009CC09FF09C8FD8909C339D339E330332C7
:100610000232013200329B2FF6D79FAF0BD0001E63
:10062000011E021E031E002AD8B4012AD8B4022AD1
:10063000D8B4032A80EF03F0006A016A026A036AF1
:10064000A36BA46BA56BA66BA251A111A0119F1166
:100650002CE0200EA76FD8909B379C379D379E3794
:10066000A337A437A537A637A251A65D08E1A1514B
:10067000A55D05E1A051A45D02E19F51A35D0FE3DB
:100680009F51A35FA051D8A0A03DA45FA151D8A0C5
:10069000A13DA55FA251D8A0A23DA65FD88000369B
:1006A000013602360336A72FD6D7EA6AA30EE96EC3
:1006B000000CE950936F9251956F19E091C09EF034
:1006C00090C09DF08FC09CF08EC09BF0A26BA16B80
:1006D000200EA06F820E9F6F15D703C091F002C04D
:1006E00090F001C08FF000C08EF0952FE7D791C039
:1006F0009EF090C09DF08FC09CF08EC09BF07CD788
:1007000003C091F002C090F001C08FF000C08EF0E5
:1007100091AF0DD09307938B8E1F8F1F901F911F4A
:100720008E2BD8B48F2BD8B4902BD8B4912B3B0EF2
:100730009A6F9A0E996FCA0E986F976B0A0E956F03
:100740009251D8B4932B91C09EF090C09DF08FC071
:100750009CF08EC09BF09AC0A2F099C0A1F098C006
:10076000A0F097C09FF068DF0150EFCF8EF0ECCF84
:100770008FF0ECCF90F0ECCF91F000520FE1922986
:10078000955D0CE093510CE00F0B955D01E037E2B5
:1007900093BF35D093BD04D0200E2DD0200E9317DB
:1007A00093AB0CD0939B9251D8A493070050936FB6
:1007B0002D0E9B6F85DE9351006E936B9251955D6C
:1007C0000AE10050936F2E0E9B6F7ADE9351006EFC
:1007D000200E9317000E300E93AB0DD0939B9251C9
:1007E000D8A493070050936F2D0E9B6F69DE935131
:1007F000006E936B300E002600C09BF061DE9AC045
:100800009EF099C09DF098C09CF097C09BF0A26BA1
:10081000A16BA06B0A0E9F6F0FDF03C09AF002C09E
:1008200099F001C098F000C097F0952F8CD7000C7C
:10083000F86AD09E0D8EEA6AE96AB896190EAF6E14
:10084000A60EAC6E900EAB6EC150C00B0F09C16E00
:10085000070EB46E206A216A226A236A256A266A14
:10086000276A286A296A2A6A2B6A1F0E2C6E1C0EB8
:100870002D6E1F0E2E6E1E0E2F6E1F0E306E1E0E54
:10088000316E1F0E326E336E1E0E346E1F0E356EBD
:100890001E0E366E1F0E376E3A903B6A3D6A3E6AF8
:1008A0003F6A406A800E416E200E426E436A446A7F
:1008B000456A466A476A486A496A4A6A4B6A4C6AA4
:1008C0007D0E4D6E790E4E6EFF0E4F6ED60E506E33
:1008D0007D0E516E790E526EFF0E536ED60E546E13
:1008E0007F0E556E566A576A586A596E5A6A5B6A25
:1008F0005C6A7D0E5D6E790E5E6EFF0E5F6ED60ECB
:10090000606E7F0E616E626A636A646A656A666AB7
:10091000676A686A696A6A6A6B6A6C6A6D6A6E6A33
:100920006F6A706A800E716E726E736A746A756A2D
:10093000766A776AF00E786E796A7A6A7B6A7C6A80
:100940007D6A7E6A010E7F6E806B816B220E826FE4
:100950002C0E836F310E846F640E856F010E866FCF
:10096000876B886BC050C00B0709C06EC08EC280F9
:10097000C150C00B0D09C16E9D8A800ED56EF28AE2
:10098000F286B70EB1168B940C0EBD6E000E0509E3
:10099000CA6EF90ECB6EC00EF212949800009486C7
:1009A00082A6FED7000000D0000094880000948842
:1009B0000000948600008B98949800008B96949683
:1009C000D00E916F0ADC916B08DC9488000094864D
:1009D000000082A6FED78B98949800008B96949680
:1009E000D10E916FEDEC00F0010E006E1ADC01C02B
:1009F00024F094980000948682A6FED7000000D0D0
:100A0000000094880000F00E936E946E000E956EB8
:100A1000926E82D4800E24162450800808E1896BDF
:100A20008A6B8B6B8C6B8D6B8E6B8F6BB3DC94884E
:100A30000000948600008B98949800008B96949602
:100A4000D00E916FEDEC00F0030E916FEDEC00F025
:100A5000948800009486000082A6FED78B98949814
:100A600000008B969496D10E916FEDEC00F0010E84
:100A7000006E11EC01F001507F0B8A6F8F6FE1DC8B
:100A800001C02BF0010E006E11EC01F001503F0B84
:100A90008A6F8F6FD6DC01C028F0010E006E11EC5A
:100AA00001F001501F0B8A6F8F6FCBDC01C029F062
:100AB000006A11EC01F001C089F001C08FF0C1DCC7
:100AC00001C02AF094980000948682A6FED7000008
:100AD00000D00000948800009488000094860000F4
:100AE0008B98949800008B969496D00E916FEDECB5
:100AF00000F0916BEDEC00F094880000948600000B
:100B000082A6FED78B98949800008B969496D10E6F
:100B1000916FEDEC00F0010E006E11EC01F0015050
:100B20007F0B8A6F8F6F8DDC01C027F0010E006E86
:100B300011EC01F001507F0B8A6F8F6F82DC01C0D6
:100B400026F0006A11EC01F001503F0B8A6F8F6FA5
:100B500078DC01C025F094980000948682A6FED728
:100B6000000000D0000094880000010E9C6F9D6F73
:100B70007BDC8A6B25C089F088DC00C089F001C06D
:100B80008AF002C08BF003C08CF08D6B8D516AEC43
:100B900000F08D2B006E9B6F93DC060E8D5DF6E1F1
:100BA000000EE96E8CC091F08BC090F08AC08FF07F
:100BB00089C08EF0926B7DDD090E9C6F010E9D6FDA
:100BC00053DC8A6B26C089F060DC00C089F001C06C
:100BD0008AF002C08BF003C08CF03A0E9B6F70DC81
:100BE000000EE96E8CC091F08BC090F08AC08FF03F
:100BF00089C08EF0926B5DDD0C0E9C6F010E9D6FB7
:100C000033DC8A6B27C089F040DC00C089F001C06A
:100C10008AF002C08BF003C08CF03A0E9B6F50DC60
:100C2000000EE96E8CC091F08BC090F08AC08FF0FE
:100C300089C08EF0926B3DDD010E9C6F020E9D6FA0
:100C400013DC8A6B28C089F020DC00C089F001C069
:100C50008AF002C08BF003C08CF0000EE96E03C076
:100C600091F002C090F001C08FF000C08EF0926B46
:100C700020DD050E9C6F020E9D6F34EC02F08A6B36
:100C800029C089F002DC00C089F001C08AF002C0EE
:100C90008BF003C08CF02F0E9B6F12DC000EE96E00
:100CA0008CC091F08BC090F08AC08FF089C08EF01C
:100CB000926BFFDC080E9C6F020E9D6F34EC02F00D
:100CC0008A6B2AC089F045EC02F000C089F001C0AF
:100CD0008AF002C08BF003C08CF02F0E9B6F60EC8B
:100CE00002F0000EE96E8CC091F08BC090F08AC0CB
:100CF0008FF089C08EF0926BDCDC010E395CFC0F4A
:100D00004FE2040FE2EF06F0282A28501E0802E303
:100D1000010E286E45D0292A29500C080DE3896B55
:100D200089517DEC00F0892B006E00509EA8FED703
:100D3000AD6E2C0E895DF4E129500C0802E2010E23
:100D4000296E2ED0252A255018080DE3896B89516C
:100D50007DEC00F0892B006E00509EA8FED7AD6E92
:100D60002C0E895DF4E12550180802E2010E256E73
:100D700017D0262A26503C080DE3896B89517DEC5B
:100D800000F0892B006E00509EA8FED7AD6E2C0E91
:100D9000895DF4E126503C0802E2010E266E00D087
:100DA00028C089F029C08AF02AC08BF02BC08CF0B3
:100DB00025C08DF026C08EF027C08FF0CAEC01F060
:100DC00036D60300F2CF0EF0F29EE824E90FF66E5D
:100DD0000D0EF76ED8B0F72A0A00F550FA6E08002B
:100DE000F5500EBEF28EF96E080D160D440D720D03
:020000040030CA
:0E0000000001181E008381000FC00FE00F40AA
:00000001FF
;PIC18F4520
